{
  "contractName": "STACKDFinance",
  "abi": [
    {
      "inputs": [
        {
          "internalType": "address",
          "name": "router_",
          "type": "address"
        }
      ],
      "stateMutability": "payable",
      "type": "constructor"
    },
    {
      "anonymous": false,
      "inputs": [
        {
          "indexed": true,
          "internalType": "address",
          "name": "owner",
          "type": "address"
        },
        {
          "indexed": true,
          "internalType": "address",
          "name": "spender",
          "type": "address"
        },
        {
          "indexed": false,
          "internalType": "uint256",
          "name": "value",
          "type": "uint256"
        }
      ],
      "name": "Approval",
      "type": "event"
    },
    {
      "anonymous": false,
      "inputs": [
        {
          "indexed": false,
          "internalType": "uint256",
          "name": "amountBNB",
          "type": "uint256"
        },
        {
          "indexed": false,
          "internalType": "uint256",
          "name": "amountBOG",
          "type": "uint256"
        }
      ],
      "name": "AutoLiquify",
      "type": "event"
    },
    {
      "anonymous": false,
      "inputs": [
        {
          "indexed": false,
          "internalType": "address",
          "name": "owner",
          "type": "address"
        }
      ],
      "name": "OwnershipTransferred",
      "type": "event"
    },
    {
      "anonymous": false,
      "inputs": [
        {
          "indexed": true,
          "internalType": "address",
          "name": "from",
          "type": "address"
        },
        {
          "indexed": true,
          "internalType": "address",
          "name": "to",
          "type": "address"
        },
        {
          "indexed": false,
          "internalType": "uint256",
          "name": "value",
          "type": "uint256"
        }
      ],
      "name": "Transfer",
      "type": "event"
    },
    {
      "inputs": [],
      "name": "DEAD",
      "outputs": [
        {
          "internalType": "address",
          "name": "",
          "type": "address"
        }
      ],
      "stateMutability": "view",
      "type": "function"
    },
    {
      "inputs": [],
      "name": "ZERO",
      "outputs": [
        {
          "internalType": "address",
          "name": "",
          "type": "address"
        }
      ],
      "stateMutability": "view",
      "type": "function"
    },
    {
      "inputs": [],
      "name": "antiWhaleSellLimitDenominator",
      "outputs": [
        {
          "internalType": "uint256",
          "name": "",
          "type": "uint256"
        }
      ],
      "stateMutability": "view",
      "type": "function"
    },
    {
      "inputs": [
        {
          "internalType": "address",
          "name": "adr",
          "type": "address"
        }
      ],
      "name": "authorize",
      "outputs": [],
      "stateMutability": "nonpayable",
      "type": "function"
    },
    {
      "inputs": [],
      "name": "autoLiquidityReceiver",
      "outputs": [
        {
          "internalType": "address",
          "name": "",
          "type": "address"
        }
      ],
      "stateMutability": "view",
      "type": "function"
    },
    {
      "inputs": [],
      "name": "buybackFee",
      "outputs": [
        {
          "internalType": "uint256",
          "name": "",
          "type": "uint256"
        }
      ],
      "stateMutability": "view",
      "type": "function"
    },
    {
      "inputs": [
        {
          "internalType": "address",
          "name": "",
          "type": "address"
        }
      ],
      "name": "canTransferBeforeTradingIsEnabled",
      "outputs": [
        {
          "internalType": "bool",
          "name": "",
          "type": "bool"
        }
      ],
      "stateMutability": "view",
      "type": "function"
    },
    {
      "inputs": [],
      "name": "distributor",
      "outputs": [
        {
          "internalType": "contract DividendDistributor",
          "name": "",
          "type": "address"
        }
      ],
      "stateMutability": "view",
      "type": "function"
    },
    {
      "inputs": [],
      "name": "distributorGas",
      "outputs": [
        {
          "internalType": "uint256",
          "name": "",
          "type": "uint256"
        }
      ],
      "stateMutability": "view",
      "type": "function"
    },
    {
      "inputs": [],
      "name": "enableStaking",
      "outputs": [
        {
          "internalType": "bool",
          "name": "",
          "type": "bool"
        }
      ],
      "stateMutability": "view",
      "type": "function"
    },
    {
      "inputs": [
        {
          "internalType": "address",
          "name": "",
          "type": "address"
        }
      ],
      "name": "excludedFromSellLimit",
      "outputs": [
        {
          "internalType": "bool",
          "name": "",
          "type": "bool"
        }
      ],
      "stateMutability": "view",
      "type": "function"
    },
    {
      "inputs": [],
      "name": "feeDenominator",
      "outputs": [
        {
          "internalType": "uint256",
          "name": "",
          "type": "uint256"
        }
      ],
      "stateMutability": "view",
      "type": "function"
    },
    {
      "inputs": [
        {
          "internalType": "address",
          "name": "adr",
          "type": "address"
        }
      ],
      "name": "isAuthorized",
      "outputs": [
        {
          "internalType": "bool",
          "name": "",
          "type": "bool"
        }
      ],
      "stateMutability": "view",
      "type": "function"
    },
    {
      "inputs": [
        {
          "internalType": "address",
          "name": "",
          "type": "address"
        }
      ],
      "name": "isDividendExempt",
      "outputs": [
        {
          "internalType": "bool",
          "name": "",
          "type": "bool"
        }
      ],
      "stateMutability": "view",
      "type": "function"
    },
    {
      "inputs": [
        {
          "internalType": "address",
          "name": "",
          "type": "address"
        }
      ],
      "name": "isFeeExempt",
      "outputs": [
        {
          "internalType": "bool",
          "name": "",
          "type": "bool"
        }
      ],
      "stateMutability": "view",
      "type": "function"
    },
    {
      "inputs": [
        {
          "internalType": "address",
          "name": "account",
          "type": "address"
        }
      ],
      "name": "isOwner",
      "outputs": [
        {
          "internalType": "bool",
          "name": "",
          "type": "bool"
        }
      ],
      "stateMutability": "view",
      "type": "function"
    },
    {
      "inputs": [],
      "name": "liquidityFee",
      "outputs": [
        {
          "internalType": "uint256",
          "name": "",
          "type": "uint256"
        }
      ],
      "stateMutability": "view",
      "type": "function"
    },
    {
      "inputs": [],
      "name": "marketingFee",
      "outputs": [
        {
          "internalType": "uint256",
          "name": "",
          "type": "uint256"
        }
      ],
      "stateMutability": "view",
      "type": "function"
    },
    {
      "inputs": [],
      "name": "marketingFeeReceiver",
      "outputs": [
        {
          "internalType": "address",
          "name": "",
          "type": "address"
        }
      ],
      "stateMutability": "view",
      "type": "function"
    },
    {
      "inputs": [],
      "name": "pair",
      "outputs": [
        {
          "internalType": "address",
          "name": "",
          "type": "address"
        }
      ],
      "stateMutability": "view",
      "type": "function"
    },
    {
      "inputs": [],
      "name": "reflectionFee",
      "outputs": [
        {
          "internalType": "uint256",
          "name": "",
          "type": "uint256"
        }
      ],
      "stateMutability": "view",
      "type": "function"
    },
    {
      "inputs": [],
      "name": "rewardToken",
      "outputs": [
        {
          "internalType": "address",
          "name": "",
          "type": "address"
        }
      ],
      "stateMutability": "view",
      "type": "function"
    },
    {
      "inputs": [],
      "name": "router",
      "outputs": [
        {
          "internalType": "contract IDexRouter",
          "name": "",
          "type": "address"
        }
      ],
      "stateMutability": "view",
      "type": "function"
    },
    {
      "inputs": [],
      "name": "sellMultiplier",
      "outputs": [
        {
          "internalType": "uint256",
          "name": "",
          "type": "uint256"
        }
      ],
      "stateMutability": "view",
      "type": "function"
    },
    {
      "inputs": [],
      "name": "sellMultiplierEnabled",
      "outputs": [
        {
          "internalType": "bool",
          "name": "",
          "type": "bool"
        }
      ],
      "stateMutability": "view",
      "type": "function"
    },
    {
      "inputs": [],
      "name": "stake",
      "outputs": [
        {
          "internalType": "contract IStackedStaking",
          "name": "",
          "type": "address"
        }
      ],
      "stateMutability": "view",
      "type": "function"
    },
    {
      "inputs": [],
      "name": "stakingFee",
      "outputs": [
        {
          "internalType": "uint256",
          "name": "",
          "type": "uint256"
        }
      ],
      "stateMutability": "view",
      "type": "function"
    },
    {
      "inputs": [],
      "name": "stakingFeeReceiver",
      "outputs": [
        {
          "internalType": "address",
          "name": "",
          "type": "address"
        }
      ],
      "stateMutability": "view",
      "type": "function"
    },
    {
      "inputs": [],
      "name": "startBlock",
      "outputs": [
        {
          "internalType": "uint256",
          "name": "",
          "type": "uint256"
        }
      ],
      "stateMutability": "view",
      "type": "function"
    },
    {
      "inputs": [],
      "name": "swapEnabled",
      "outputs": [
        {
          "internalType": "bool",
          "name": "",
          "type": "bool"
        }
      ],
      "stateMutability": "view",
      "type": "function"
    },
    {
      "inputs": [],
      "name": "swapThreshold",
      "outputs": [
        {
          "internalType": "uint256",
          "name": "",
          "type": "uint256"
        }
      ],
      "stateMutability": "view",
      "type": "function"
    },
    {
      "inputs": [],
      "name": "targetLiquidity",
      "outputs": [
        {
          "internalType": "uint256",
          "name": "",
          "type": "uint256"
        }
      ],
      "stateMutability": "view",
      "type": "function"
    },
    {
      "inputs": [],
      "name": "targetLiquidityDenominator",
      "outputs": [
        {
          "internalType": "uint256",
          "name": "",
          "type": "uint256"
        }
      ],
      "stateMutability": "view",
      "type": "function"
    },
    {
      "inputs": [],
      "name": "totalFee",
      "outputs": [
        {
          "internalType": "uint256",
          "name": "",
          "type": "uint256"
        }
      ],
      "stateMutability": "view",
      "type": "function"
    },
    {
      "inputs": [],
      "name": "tradingEnabled",
      "outputs": [
        {
          "internalType": "bool",
          "name": "",
          "type": "bool"
        }
      ],
      "stateMutability": "view",
      "type": "function"
    },
    {
      "inputs": [
        {
          "internalType": "address payable",
          "name": "adr",
          "type": "address"
        }
      ],
      "name": "transferOwnership",
      "outputs": [],
      "stateMutability": "nonpayable",
      "type": "function"
    },
    {
      "inputs": [
        {
          "internalType": "address",
          "name": "adr",
          "type": "address"
        }
      ],
      "name": "unauthorize",
      "outputs": [],
      "stateMutability": "nonpayable",
      "type": "function"
    },
    {
      "stateMutability": "payable",
      "type": "receive"
    },
    {
      "inputs": [
        {
          "internalType": "uint256",
          "name": "_deadBlocks",
          "type": "uint256"
        },
        {
          "internalType": "uint256",
          "name": "_sniperFee",
          "type": "uint256"
        }
      ],
      "name": "enableTrading",
      "outputs": [],
      "stateMutability": "nonpayable",
      "type": "function"
    },
    {
      "inputs": [
        {
          "internalType": "address",
          "name": "presaleAddress",
          "type": "address"
        }
      ],
      "name": "setPresale",
      "outputs": [],
      "stateMutability": "nonpayable",
      "type": "function"
    },
    {
      "inputs": [],
      "name": "totalSupply",
      "outputs": [
        {
          "internalType": "uint256",
          "name": "",
          "type": "uint256"
        }
      ],
      "stateMutability": "pure",
      "type": "function"
    },
    {
      "inputs": [],
      "name": "decimals",
      "outputs": [
        {
          "internalType": "uint8",
          "name": "",
          "type": "uint8"
        }
      ],
      "stateMutability": "pure",
      "type": "function"
    },
    {
      "inputs": [],
      "name": "symbol",
      "outputs": [
        {
          "internalType": "string",
          "name": "",
          "type": "string"
        }
      ],
      "stateMutability": "pure",
      "type": "function"
    },
    {
      "inputs": [],
      "name": "name",
      "outputs": [
        {
          "internalType": "string",
          "name": "",
          "type": "string"
        }
      ],
      "stateMutability": "pure",
      "type": "function"
    },
    {
      "inputs": [
        {
          "internalType": "address",
          "name": "account",
          "type": "address"
        }
      ],
      "name": "balanceOf",
      "outputs": [
        {
          "internalType": "uint256",
          "name": "",
          "type": "uint256"
        }
      ],
      "stateMutability": "view",
      "type": "function"
    },
    {
      "inputs": [
        {
          "internalType": "address",
          "name": "holder",
          "type": "address"
        },
        {
          "internalType": "address",
          "name": "spender",
          "type": "address"
        }
      ],
      "name": "allowance",
      "outputs": [
        {
          "internalType": "uint256",
          "name": "",
          "type": "uint256"
        }
      ],
      "stateMutability": "view",
      "type": "function"
    },
    {
      "inputs": [
        {
          "internalType": "address",
          "name": "spender",
          "type": "address"
        },
        {
          "internalType": "uint256",
          "name": "amount",
          "type": "uint256"
        }
      ],
      "name": "approve",
      "outputs": [
        {
          "internalType": "bool",
          "name": "",
          "type": "bool"
        }
      ],
      "stateMutability": "nonpayable",
      "type": "function"
    },
    {
      "inputs": [
        {
          "internalType": "address",
          "name": "spender",
          "type": "address"
        }
      ],
      "name": "approveMax",
      "outputs": [
        {
          "internalType": "bool",
          "name": "",
          "type": "bool"
        }
      ],
      "stateMutability": "nonpayable",
      "type": "function"
    },
    {
      "inputs": [
        {
          "internalType": "address",
          "name": "recipient",
          "type": "address"
        },
        {
          "internalType": "uint256",
          "name": "amount",
          "type": "uint256"
        }
      ],
      "name": "transfer",
      "outputs": [
        {
          "internalType": "bool",
          "name": "",
          "type": "bool"
        }
      ],
      "stateMutability": "nonpayable",
      "type": "function"
    },
    {
      "inputs": [
        {
          "internalType": "address",
          "name": "sender",
          "type": "address"
        },
        {
          "internalType": "address",
          "name": "recipient",
          "type": "address"
        },
        {
          "internalType": "uint256",
          "name": "amount",
          "type": "uint256"
        }
      ],
      "name": "transferFrom",
      "outputs": [
        {
          "internalType": "bool",
          "name": "",
          "type": "bool"
        }
      ],
      "stateMutability": "nonpayable",
      "type": "function"
    },
    {
      "inputs": [
        {
          "internalType": "bool",
          "name": "selling",
          "type": "bool"
        }
      ],
      "name": "getTotalFee",
      "outputs": [
        {
          "internalType": "uint256",
          "name": "",
          "type": "uint256"
        }
      ],
      "stateMutability": "view",
      "type": "function"
    },
    {
      "inputs": [],
      "name": "getMultipliedFee",
      "outputs": [
        {
          "internalType": "uint256",
          "name": "",
          "type": "uint256"
        }
      ],
      "stateMutability": "view",
      "type": "function"
    },
    {
      "inputs": [
        {
          "internalType": "uint256",
          "name": "amount",
          "type": "uint256"
        }
      ],
      "name": "triggerManualBuyback",
      "outputs": [],
      "stateMutability": "nonpayable",
      "type": "function"
    },
    {
      "inputs": [],
      "name": "claimDividend",
      "outputs": [],
      "stateMutability": "nonpayable",
      "type": "function"
    },
    {
      "inputs": [
        {
          "internalType": "address",
          "name": "shareholder",
          "type": "address"
        }
      ],
      "name": "getPaidDividend",
      "outputs": [
        {
          "internalType": "uint256",
          "name": "",
          "type": "uint256"
        }
      ],
      "stateMutability": "view",
      "type": "function"
    },
    {
      "inputs": [
        {
          "internalType": "address",
          "name": "shareholder",
          "type": "address"
        }
      ],
      "name": "getUnpaidDividend",
      "outputs": [
        {
          "internalType": "uint256",
          "name": "",
          "type": "uint256"
        }
      ],
      "stateMutability": "view",
      "type": "function"
    },
    {
      "inputs": [],
      "name": "getTotalDistributedDividend",
      "outputs": [
        {
          "internalType": "uint256",
          "name": "",
          "type": "uint256"
        }
      ],
      "stateMutability": "view",
      "type": "function"
    },
    {
      "inputs": [
        {
          "internalType": "address",
          "name": "_router",
          "type": "address"
        },
        {
          "internalType": "address",
          "name": "_pair",
          "type": "address"
        }
      ],
      "name": "setRoute",
      "outputs": [],
      "stateMutability": "nonpayable",
      "type": "function"
    },
    {
      "inputs": [
        {
          "internalType": "address",
          "name": "holder",
          "type": "address"
        },
        {
          "internalType": "bool",
          "name": "exempt",
          "type": "bool"
        }
      ],
      "name": "setIsDividendExempt",
      "outputs": [],
      "stateMutability": "nonpayable",
      "type": "function"
    },
    {
      "inputs": [
        {
          "internalType": "address",
          "name": "holder",
          "type": "address"
        },
        {
          "internalType": "bool",
          "name": "exempt",
          "type": "bool"
        }
      ],
      "name": "setIsFeeExempt",
      "outputs": [],
      "stateMutability": "nonpayable",
      "type": "function"
    },
    {
      "inputs": [
        {
          "internalType": "address",
          "name": "_address",
          "type": "address"
        },
        {
          "internalType": "bool",
          "name": "_value",
          "type": "bool"
        }
      ],
      "name": "setExcludedFromSellLimit",
      "outputs": [],
      "stateMutability": "nonpayable",
      "type": "function"
    },
    {
      "inputs": [
        {
          "internalType": "uint256",
          "name": "_liquidityFee",
          "type": "uint256"
        },
        {
          "internalType": "uint256",
          "name": "_buybackFee",
          "type": "uint256"
        },
        {
          "internalType": "uint256",
          "name": "_reflectionFee",
          "type": "uint256"
        },
        {
          "internalType": "uint256",
          "name": "_marketingFee",
          "type": "uint256"
        },
        {
          "internalType": "uint256",
          "name": "_stakingFee",
          "type": "uint256"
        },
        {
          "internalType": "uint256",
          "name": "_feeDenominator",
          "type": "uint256"
        }
      ],
      "name": "setFees",
      "outputs": [],
      "stateMutability": "nonpayable",
      "type": "function"
    },
    {
      "inputs": [
        {
          "internalType": "address",
          "name": "_autoLiquidityReceiver",
          "type": "address"
        },
        {
          "internalType": "address",
          "name": "_marketingFeeReceiver",
          "type": "address"
        },
        {
          "internalType": "address",
          "name": "_stakingFeeReceiver",
          "type": "address"
        }
      ],
      "name": "setFeeReceivers",
      "outputs": [],
      "stateMutability": "nonpayable",
      "type": "function"
    },
    {
      "inputs": [
        {
          "internalType": "address",
          "name": "_staking",
          "type": "address"
        },
        {
          "internalType": "bool",
          "name": "_enable",
          "type": "bool"
        }
      ],
      "name": "setStakeAddress",
      "outputs": [],
      "stateMutability": "nonpayable",
      "type": "function"
    },
    {
      "inputs": [
        {
          "internalType": "bool",
          "name": "_enabled",
          "type": "bool"
        },
        {
          "internalType": "uint256",
          "name": "_amount",
          "type": "uint256"
        }
      ],
      "name": "setSwapBackSettings",
      "outputs": [],
      "stateMutability": "nonpayable",
      "type": "function"
    },
    {
      "inputs": [
        {
          "internalType": "uint256",
          "name": "_target",
          "type": "uint256"
        },
        {
          "internalType": "uint256",
          "name": "_denominator",
          "type": "uint256"
        }
      ],
      "name": "setTargetLiquidity",
      "outputs": [],
      "stateMutability": "nonpayable",
      "type": "function"
    },
    {
      "inputs": [
        {
          "internalType": "uint256",
          "name": "_minPeriod",
          "type": "uint256"
        },
        {
          "internalType": "uint256",
          "name": "_minDistribution",
          "type": "uint256"
        }
      ],
      "name": "setDistributionCriteria",
      "outputs": [],
      "stateMutability": "nonpayable",
      "type": "function"
    },
    {
      "inputs": [
        {
          "internalType": "uint256",
          "name": "gas",
          "type": "uint256"
        }
      ],
      "name": "setDistributorSettings",
      "outputs": [],
      "stateMutability": "nonpayable",
      "type": "function"
    },
    {
      "inputs": [
        {
          "internalType": "uint256",
          "name": "newDenominator",
          "type": "uint256"
        }
      ],
      "name": "setAntiWhaleSellLimitDenominator",
      "outputs": [],
      "stateMutability": "nonpayable",
      "type": "function"
    },
    {
      "inputs": [],
      "name": "getCirculatingSupply",
      "outputs": [
        {
          "internalType": "uint256",
          "name": "",
          "type": "uint256"
        }
      ],
      "stateMutability": "view",
      "type": "function"
    },
    {
      "inputs": [],
      "name": "getAntiWhaleSellLimit",
      "outputs": [
        {
          "internalType": "uint256",
          "name": "",
          "type": "uint256"
        }
      ],
      "stateMutability": "view",
      "type": "function"
    },
    {
      "inputs": [
        {
          "internalType": "uint256",
          "name": "accuracy",
          "type": "uint256"
        }
      ],
      "name": "getLiquidityBacking",
      "outputs": [
        {
          "internalType": "uint256",
          "name": "",
          "type": "uint256"
        }
      ],
      "stateMutability": "view",
      "type": "function"
    },
    {
      "inputs": [
        {
          "internalType": "uint256",
          "name": "target",
          "type": "uint256"
        },
        {
          "internalType": "uint256",
          "name": "accuracy",
          "type": "uint256"
        }
      ],
      "name": "isOverLiquified",
      "outputs": [
        {
          "internalType": "bool",
          "name": "",
          "type": "bool"
        }
      ],
      "stateMutability": "view",
      "type": "function"
    },
    {
      "inputs": [
        {
          "internalType": "bool",
          "name": "_enabled",
          "type": "bool"
        },
        {
          "internalType": "uint256",
          "name": "_multiplier",
          "type": "uint256"
        }
      ],
      "name": "setSellMultiplier",
      "outputs": [],
      "stateMutability": "nonpayable",
      "type": "function"
    }
  ],
  "bytecode": "0x6080604052600280546001600160a01b031990811673e9e7cea3dedca5984780bafc599bd69add087d561790915560048054821673393b9d84495fdaf7098dd623260af93274f4bcb117905560058054821673ee8948866c7885e36c928cfd702947512cf7067e1790556006805490911673550dbd64c3da1e285a1598784013d79a84ded60f17905560c8600755606460088190556105dc600955600a818155600b8290556107d0600c55612710600d556001600e556019600f556010919091556207a1206011556103e86012908155614e2091620000df919062000691565b620000f0906404a817c800620006a9565b620000fc9190620006cb565b6013556017805461ff001916610100179055604051620045e0388190039081908339810160408190526200013091620006ee565b600080546001600160a01b0319908116339081178355825260016020818152604093849020805460ff191690921790915580546001600160a01b038516921682178155825163c45a015560e01b81529251919263c45a015592600480830193928290030181865afa158015620001aa573d6000803e3d6000fd5b505050506040513d601f19601f82011682018060405250810190620001d09190620006ee565b6001600160a01b031663c9c6539630602060009054906101000a90046001600160a01b03166001600160a01b031663ad5c46486040518163ffffffff1660e01b8152600401602060405180830381865afa15801562000233573d6000803e3d6000fd5b505050506040513d601f19601f82011682018060405250810190620002599190620006ee565b6040516001600160e01b031960e085901b1681526001600160a01b039283166004820152911660248201526044016020604051808303816000875af1158015620002a7573d6000803e3d6000fd5b505050506040513d601f19601f82011682018060405250810190620002cd9190620006ee565b600380546001600160a01b0319166001600160a01b03929092169190911790556040518190620002fd906200056e565b6001600160a01b039091168152602001604051809103906000f0801580156200032a573d6000803e3d6000fd5b50601e80546001600160a01b0319166001600160a01b03928316179055336000818152601a60209081526040808320805460ff1990811660019081179092556005805488168652838620805483168417905560048054891687528487208054841685179055600654891687528487208054841685179055878752601b865284872080548416851790555488168652838620805483168417905560035488168652838620805483168417905530865283862080548316841790557f6790d4910a095e0e04c8daa388834616a295bac3f59038957b6d0b93a2d2168480548316841790557f584f46c60af19681376031579adb04a2416e54ee5505351c2a8435e3766026ea8054831684179055958552601c9093528184208054841682179055935490941682529290208054909216179055620004686012600a62000691565b62000479906404a817c800620006a9565b30600090815260196020908152604080832082546001600160a01b03168452909152902055620004ac6012600a62000691565b620004bd906404a817c800620006a9565b3060009081526019602090815260408083206003546001600160a01b03168452909152902055620004f16012600a62000691565b62000502906404a817c800620006a9565b33600081815260186020526040812092909255907fddf252ad1be2c89b69c2b068fc378daa952ba7f163c4a11628f55a4df523b3ef620005456012600a62000691565b62000556906404a817c800620006a9565b60405190815260200160405180910390a35062000719565b6111fe80620033e283390190565b634e487b7160e01b600052601160045260246000fd5b600181815b80851115620005d3578160001904821115620005b757620005b76200057c565b80851615620005c557918102915b93841c939080029062000597565b509250929050565b600082620005ec575060016200068b565b81620005fb575060006200068b565b81600181146200061457600281146200061f576200063f565b60019150506200068b565b60ff8411156200063357620006336200057c565b50506001821b6200068b565b5060208310610133831016604e8410600b841016171562000664575081810a6200068b565b62000670838362000592565b80600019048211156200068757620006876200057c565b0290505b92915050565b6000620006a260ff841683620005db565b9392505050565b6000816000190483118215151615620006c657620006c66200057c565b500290565b600082620006e957634e487b7160e01b600052601260045260246000fd5b500490565b6000602082840312156200070157600080fd5b81516001600160a01b0381168114620006a257600080fd5b612cb980620007296000396000f3fe6080604052600436106103ba5760003560e01c806383ad7994116101f9578063d5fcc7b61161011e578063eff98843116100b6578063f708a64f1161007a578063f708a64f14610c2e578063f7c618c114610c4e578063f887ea4014610c6e578063fe9fbb8014610c8e578063fed0d2a114610cae57600080fd5b8063eff9884314610ba3578063f0b37c0414610bb9578063f0fc6bca14610bd9578063f1f3bca314610bee578063f2fde38b14610c0e57600080fd5b8063d5fcc7b614610a72578063d7726e8a14610a92578063d7c0103214610ab2578063d806d12f14610ad2578063db1e5a7214610ae7578063dd62ed3e14610afd578063df20fd4914610b43578063e96fada214610b63578063ea497b7914610b8357600080fd5b8063a8aa1b3111610191578063a8aa1b3114610952578063a9059cbb14610972578063ada937d014610992578063b6a5d7de146109b2578063bfe10928146109d2578063c5cb3be5146109f2578063ca33e64c14610a12578063d11aca6214610a32578063d51ed1c814610a5257600080fd5b806383ad79941461083b57806386db0c051461085157806386f6c3c1146108715780638ab6ffc71461089157806392258ec8146108a757806395d89b41146108bd57806398118cb4146108ec5780639cd5f3fd146109025780639d1944f51461093257600080fd5b8063313ce567116102df578063571ac8b011610277578063571ac8b01461072b57806358fa63ca1461074b57806360e7196214610760578063623462da14610776578063658d4b7f146107965780636b67c4df146107b65780636ddd1713146107cc57806370a08231146107eb5780637e0e155c1461080b57600080fd5b8063313ce567146106085780633a4b66f1146106245780633b2d081c146106445780633f4218e01461065a5780634355855a1461068a5780634650d2fa146106ba57806348cd4cb1146106d457806349bc3feb146106ea5780634ada218b1461070a57600080fd5b806318160ddd1161035257806318160ddd1461051e5780631961cee2146105335780631df4ccfc14610548578063201e79911461055e57806323b872dd1461057e57806325f9389c1461059e5780632b112e49146105b35780632d48e896146105c85780632f54bf6e146105e857600080fd5b8063020f349c146103c657806303fd2a45146103e85780630445b667146104145780630505e94d1461043857806306fdde0314610458578063095ea7b3146104985780631161ae39146104c857806316c9adbc146104e8578063180b0d7e1461050857600080fd5b366103c157005b600080fd5b3480156103d257600080fd5b506103e66103e13660046126d2565b610cc4565b005b3480156103f457600080fd5b506103fe61dead81565b60405161040b91906126eb565b60405180910390f35b34801561042057600080fd5b5061042a60135481565b60405190815260200161040b565b34801561044457600080fd5b506103e6610453366004612714565b610d70565b34801561046457600080fd5b5060408051808201909152600e81526d535441434b442046696e616e636560901b60208201525b60405161040b919061274d565b3480156104a457600080fd5b506104b86104b33660046127a2565b610dc3565b604051901515815260200161040b565b3480156104d457600080fd5b506104b86104e33660046127ce565b610e30565b3480156104f457600080fd5b506103e6610503366004612805565b610e44565b34801561051457600080fd5b5061042a600d5481565b34801561052a57600080fd5b5061042a610e94565b34801561053f57600080fd5b5061042a610eb6565b34801561055457600080fd5b5061042a600c5481565b34801561056a57600080fd5b506103e66105793660046127ce565b610f24565b34801561058a57600080fd5b506104b861059936600461283a565b610f54565b3480156105aa57600080fd5b5061042a611030565b3480156105bf57600080fd5b5061042a611047565b3480156105d457600080fd5b506103e66105e33660046127ce565b611085565b3480156105f457600080fd5b506104b861060336600461287b565b611114565b34801561061457600080fd5b506040516012815260200161040b565b34801561063057600080fd5b50601f546103fe906001600160a01b031681565b34801561065057600080fd5b5061042a60085481565b34801561066657600080fd5b506104b861067536600461287b565b601a6020526000908152604090205460ff1681565b34801561069657600080fd5b506104b86106a536600461287b565b601b6020526000908152604090205460ff1681565b3480156106c657600080fd5b506017546104b89060ff1681565b3480156106e057600080fd5b5061042a60145481565b3480156106f657600080fd5b5061042a61070536600461287b565b611128565b34801561071657600080fd5b506017546104b8906301000000900460ff1681565b34801561073757600080fd5b506104b861074636600461287b565b61119a565b34801561075757600080fd5b506103fe600081565b34801561076c57600080fd5b5061042a60115481565b34801561078257600080fd5b506103e6610791366004612898565b6111bb565b3480156107a257600080fd5b506103e66107b1366004612805565b611257565b3480156107c257600080fd5b5061042a600a5481565b3480156107d857600080fd5b506017546104b890610100900460ff1681565b3480156107f757600080fd5b5061042a61080636600461287b565b6112a7565b34801561081757600080fd5b506104b861082636600461287b565b601c6020526000908152604090205460ff1681565b34801561084757600080fd5b5061042a60095481565b34801561085d57600080fd5b5061042a61086c36600461287b565b6112c2565b34801561087d57600080fd5b506103e661088c3660046128b4565b6112f3565b34801561089d57600080fd5b5061042a60105481565b3480156108b357600080fd5b5061042a600f5481565b3480156108c957600080fd5b5060408051808201909152600681526514d51050d2d160d21b602082015261048b565b3480156108f857600080fd5b5061042a60075481565b34801561090e57600080fd5b506104b861091d36600461287b565b601d6020526000908152604090205460ff1681565b34801561093e57600080fd5b506103e661094d3660046126d2565b6113d2565b34801561095e57600080fd5b506003546103fe906001600160a01b031681565b34801561097e57600080fd5b506104b861098d3660046127a2565b61144e565b34801561099e57600080fd5b506103e66109ad366004612805565b61145b565b3480156109be57600080fd5b506103e66109cd36600461287b565b6114be565b3480156109de57600080fd5b50601e546103fe906001600160a01b031681565b3480156109fe57600080fd5b506006546103fe906001600160a01b031681565b348015610a1e57600080fd5b506004546103fe906001600160a01b031681565b348015610a3e57600080fd5b506017546104b89062010000900460ff1681565b348015610a5e57600080fd5b5061042a610a6d3660046126d2565b61150a565b348015610a7e57600080fd5b506103e6610a8d36600461287b565b61154a565b348015610a9e57600080fd5b506103e6610aad3660046127ce565b6115c9565b348015610abe57600080fd5b506103e6610acd3660046128f7565b611610565b348015610ade57600080fd5b5061042a611674565b348015610af357600080fd5b5061042a60125481565b348015610b0957600080fd5b5061042a610b18366004612714565b6001600160a01b03918216600090815260196020908152604080832093909416825291909152205490565b348015610b4f57600080fd5b506103e6610b5e366004612898565b611698565b348015610b6f57600080fd5b506005546103fe906001600160a01b031681565b348015610b8f57600080fd5b506103e6610b9e3660046126d2565b6116db565b348015610baf57600080fd5b5061042a600b5481565b348015610bc557600080fd5b506103e6610bd436600461287b565b61170f565b348015610be557600080fd5b506103e6611755565b348015610bfa57600080fd5b5061042a610c09366004612942565b6117b9565b348015610c1a57600080fd5b506103e6610c2936600461287b565b6117d1565b348015610c3a57600080fd5b506103e6610c49366004612805565b611866565b348015610c5a57600080fd5b506002546103fe906001600160a01b031681565b348015610c7a57600080fd5b506020546103fe906001600160a01b031681565b348015610c9a57600080fd5b506104b8610ca936600461287b565b61195f565b348015610cba57600080fd5b5061042a600e5481565b610ccd3361195f565b610cf25760405162461bcd60e51b8152600401610ce99061295d565b60405180910390fd5b620186a0811115610d6b5760405162461bcd60e51b815260206004820152603f60248201527f616d6f756e74206d7573742062652067726561746572207468616e20302e303060448201527f3125206f662063697263756c6174696e6720737570706c7920737570706c79006064820152608401610ce9565b601255565b610d793361195f565b610d955760405162461bcd60e51b8152600401610ce99061295d565b602080546001600160a01b039384166001600160a01b03199182161790915560038054929093169116179055565b3360008181526019602090815260408083206001600160a01b038716808552925280832085905551919290917f8c5be1e5ebec7d5bd14f71427d1e84f3dd0314c0f7b2291e5b200ac8c7c3b92590610e1e9086815260200190565b60405180910390a35060015b92915050565b600082610e3c8361150a565b119392505050565b610e4d3361195f565b610e695760405162461bcd60e51b8152600401610ce99061295d565b6001600160a01b03919091166000908152601d60205260409020805460ff1916911515919091179055565b6000610ea26012600a612a7c565b610eb1906404a817c800612a8b565b905090565b601e546040805163efca2eed60e01b815290516000926001600160a01b03169163efca2eed9160048083019260209291908290030181865afa158015610f00573d6000803e3d6000fd5b505050506040513d601f19601f82011682018060405250810190610eb19190612aaa565b610f2d3361195f565b610f495760405162461bcd60e51b8152600401610ce99061295d565b600f91909155601055565b6000610f626012600a612a7c565b610f71906404a817c800612a8b565b6001600160a01b03851660009081526019602090815260408083203384529091529020541461101b576040805180820182526016815275496e73756666696369656e7420416c6c6f77616e636560501b6020808301919091526001600160a01b0387166000908152601982528381203382529091529190912054610ff691849061197d565b6001600160a01b03851660009081526019602090815260408083203384529091529020555b6110268484846119a9565b90505b9392505050565b600060125461103d611047565b610eb19190612ac3565b6000610eb161105660006112a7565b61107f61106461dead6112a7565b6110706012600a612a7c565b61107f906404a817c800612a8b565b90611edf565b61108e3361195f565b6110aa5760405162461bcd60e51b8152600401610ce99061295d565b601e546040516316a4744b60e11b815260048101849052602481018390526001600160a01b0390911690632d48e896906044015b600060405180830381600087803b1580156110f857600080fd5b505af115801561110c573d6000803e3d6000fd5b505050505050565b6000546001600160a01b0391821691161490565b601e54604051630a5e902b60e31b81526000916001600160a01b0316906352f48158906111599085906004016126eb565b602060405180830381865afa158015611176573d6000803e3d6000fd5b505050506040513d601f19601f82011682018060405250810190610e2a9190612aaa565b6000610e2a826111ac6012600a612a7c565b6104b3906404a817c800612a8b565b6111c43361195f565b6111e05760405162461bcd60e51b8152600401610ce99061295d565b60028111156112405760405162461bcd60e51b815260206004820152602660248201527f53656c6c204d756c7469706c6965722043616e6e6f74206265206d6f726520746044820152650d0c2dc4064f60d31b6064820152608401610ce9565b6017805460ff191692151592909217909155600e55565b6112603361195f565b61127c5760405162461bcd60e51b8152600401610ce99061295d565b6001600160a01b03919091166000908152601a60205260409020805460ff1916911515919091179055565b6001600160a01b031660009081526018602052604090205490565b601e5460405163051fa63360e31b81526000916001600160a01b0316906328fd3198906111599085906004016126eb565b6112fc3361195f565b6113185760405162461bcd60e51b8152600401610ce99061295d565b600786905560088590556009849055600a839055600b82905561134982611343858188818c8c611eeb565b90611eeb565b600c55600d81905561135c600482612ac3565b600c541061110c5760405162461bcd60e51b815260206004820152603b60248201527f546f74616c206665652073686f756c64206e6f7420626520677265617465722060448201527f7468616e20312f34206f66206665652064656e6f6d696e61746f7200000000006064820152608401610ce9565b6113db3361195f565b6113f75760405162461bcd60e51b8152600401610ce99061295d565b620b71b081106114495760405162461bcd60e51b815260206004820152601d60248201527f476173206d757374206265206c6f776572207468616e203735303030300000006044820152606401610ce9565b601155565b60006110293384846119a9565b6114643361195f565b6114805760405162461bcd60e51b8152600401610ce99061295d565b601f80546001600160a01b039093166001600160a01b03199093169290921790915560178054911515620100000262ff000019909216919091179055565b6114c733611114565b6114e35760405162461bcd60e51b8152600401610ce990612ae5565b6001600160a01b03166000908152600160208190526040909120805460ff19169091179055565b6000610e2a611517611047565b6003546115449061153d90600290611537906001600160a01b03166112a7565b90611ef7565b8590611ef7565b90611f03565b6115533361195f565b61156f5760405162461bcd60e51b8152600401610ce99061295d565b6001600160a01b03166000908152601a602090815260408083208054600160ff199182168117909255601b84528285208054821683179055601c84528285208054821683179055601d909352922080549091169091179055565b6115d23361195f565b6115ee5760405162461bcd60e51b8152600401610ce99061295d565b6017805463ff0000001916630100000017905543601455601591909155601655565b6116193361195f565b6116355760405162461bcd60e51b8152600401610ce99061295d565b600480546001600160a01b039485166001600160a01b031991821617909155600580549385169382169390931790925560068054919093169116179055565b60175460009060ff161561169157600e54600c54610eb191611ef7565b50600c5490565b6116a13361195f565b6116bd5760405162461bcd60e51b8152600401610ce99061295d565b601780549215156101000261ff001990931692909217909155601355565b6116e43361195f565b6117005760405162461bcd60e51b8152600401610ce99061295d565b61170c8161dead611f0f565b50565b61171833611114565b6117345760405162461bcd60e51b8152600401610ce990612ae5565b6001600160a01b03166000908152600160205260409020805460ff19169055565b601e54604051630afbf02f60e11b81526001600160a01b03909116906315f7e05e906117859033906004016126eb565b600060405180830381600087803b15801561179f57600080fd5b505af11580156117b3573d6000803e3d6000fd5b50505050565b600081156117c957610e2a611674565b5050600c5490565b6117da33611114565b6117f65760405162461bcd60e51b8152600401610ce990612ae5565b600080546001600160a01b0319166001600160a01b0383169081178255815260016020819052604091829020805460ff19169091179055517f04dba622d284ed0014ee4b9a6a68386be1a4c08a4913ae272de89199cc6861639061185b9083906126eb565b60405180910390a150565b61186f3361195f565b61188b5760405162461bcd60e51b8152600401610ce99061295d565b6001600160a01b03821630148015906118b257506003546001600160a01b03838116911614155b6118bb57600080fd5b6001600160a01b0382166000908152601b60205260409020805460ff1916821580159190911790915561191b57601e54604051630a5b654b60e11b81526001600160a01b03909116906314b6ca96906110de908590600090600401612b05565b601e546001600160a01b0383811660009081526018602052604090819020549051630a5b654b60e11b815291909216916314b6ca96916110de918691600401612b05565b6001600160a01b031660009081526001602052604090205460ff1690565b600081848411156119a15760405162461bcd60e51b8152600401610ce9919061274d565b505050900390565b6017546000906301000000900460ff16611a3b576001600160a01b0384166000908152601c602052604090205460ff16611a3b5760405162461bcd60e51b815260206004820152602d60248201527f596f752063616e6e6f74207472616e73666572206265666f726520747261646960448201526c1b99c81a5cc8195b98589b1959609a1b6064820152608401610ce9565b60175462010000900460ff1615611b2c57601f5460405163a5b39cfb60e01b81526001600160a01b039091169063a5b39cfb90611a7c9087906004016126eb565b6020604051808303816000875af1158015611a9b573d6000803e3d6000fd5b505050506040513d601f19601f82011682018060405250810190611abf9190612aaa565b6001600160a01b038516600090815260186020526040902054611ae29084611edf565b1015611b2c5760405162461bcd60e51b815260206004820152601960248201527821b0b7103737ba1039b2b7321039ba30b5b2b2103a37b5b2b760391b6044820152606401610ce9565b6003546001600160a01b038481169116148015611b5757506000546001600160a01b03858116911614155b8015611b7c57506001600160a01b0384166000908152601d602052604090205460ff16155b15611bda576000611b8b611030565b905080831115611bd85760405162461bcd60e51b8152602060048201526018602482015277105b9d1a5dda185b19481b1a5b5a5d08195e18d95959195960421b6044820152606401610ce9565b505b602054600160a01b900460ff1615611bfe57611bf7848484612082565b9050611029565b611c06612156565b15611c1357611c136121b1565b6040805180820182526014815273496e73756666696369656e742042616c616e636560601b6020808301919091526001600160a01b038716600090815260189091529190912054611c6591849061197d565b6001600160a01b038516600090815260186020526040812091909155601554601454611c9091611eeb565b431015611cbc57611ca0856125ec565b611caa5782611cb5565b611cb585858561260b565b9050611cdd565b611cc5856125ec565b611ccf5782611cda565b611cda8585856126a0565b90505b6001600160a01b038416600090815260186020526040902054611d009082611eeb565b6001600160a01b038086166000908152601860209081526040808320949094559188168152601b909152205460ff16611da457601e546001600160a01b0386811660009081526018602052604090819020549051630a5b654b60e11b815291909216916314b6ca9691611d77918991600401612b05565b600060405180830381600087803b158015611d9157600080fd5b505af1925050508015611da2575060015b505b6001600160a01b0384166000908152601b602052604090205460ff16611e3557601e546001600160a01b0385811660009081526018602052604090819020549051630a5b654b60e11b815291909216916314b6ca9691611e08918891600401612b05565b600060405180830381600087803b158015611e2257600080fd5b505af1925050508015611e33575060015b505b601e546011546040516001624d3b8760e01b031981526001600160a01b039092169163ffb2c47991611e6d9160040190815260200190565b600060405180830381600087803b158015611e8757600080fd5b505af1925050508015611e98575060015b50836001600160a01b0316856001600160a01b0316600080516020612c6483398151915283604051611ecc91815260200190565b60405180910390a3506001949350505050565b60006110298284612b1e565b60006110298284612b35565b60006110298284612a8b565b60006110298284612ac3565b6020805460ff60a01b1916600160a01b1781556040805160028082526060820183526000939192909183019080368337505060208054604080516315ab88c960e31b815290519495506001600160a01b039091169363ad5c46489350600480830193928290030181865afa158015611f8b573d6000803e3d6000fd5b505050506040513d601f19601f82011682018060405250810190611faf9190612b4d565b81600081518110611fc257611fc2612b6a565b60200260200101906001600160a01b031690816001600160a01b0316815250503081600181518110611ff657611ff6612b6a565b6001600160a01b039283166020918202929092018101919091525460405163b6f9de9560e01b815291169063b6f9de9590859061203e90600090869088904290600401612bc4565b6000604051808303818588803b15801561205757600080fd5b505af115801561206b573d6000803e3d6000fd5b50506020805460ff60a01b19169055505050505050565b6040805180820182526014815273496e73756666696369656e742042616c616e636560601b6020808301919091526001600160a01b03861660009081526018909152918220546120d391849061197d565b6001600160a01b0380861660009081526018602052604080822093909355908516815220546121029083611eeb565b6001600160a01b038085166000818152601860205260409081902093909355915190861690600080516020612c64833981519152906121449086815260200190565b60405180910390a35060019392505050565b6003546000906001600160a01b0316331480159061217e5750602054600160a01b900460ff16155b80156121915750601754610100900460ff165b8015610eb157505060135430600090815260186020526040902054101590565b6020805460ff60a01b1916600160a01b179055600c54600b546013546000926121df92909161154491611ef7565b905060006121f1600f54601054610e30565b6121fd57600754612200565b60005b905060006122246002611544600c5461154486601354611ef790919063ffffffff16565b905060006122418461107f84601354611edf90919063ffffffff16565b6040805160028082526060820183529293506000929091602083019080368337019050509050308160008151811061227b5761227b612b6a565b6001600160a01b039283166020918202929092018101919091528054604080516315ab88c960e31b81529051919093169263ad5c46489260048083019391928290030181865afa1580156122d3573d6000803e3d6000fd5b505050506040513d601f19601f820116820180604052508101906122f79190612b4d565b8160018151811061230a5761230a612b6a565b6001600160a01b039283166020918202929092018101919091525460405163791ac94760e01b81524792919091169063791ac94790612356908690600090879030904290600401612bf9565b600060405180830381600087803b15801561237057600080fd5b505af1158015612384573d6000803e3d6000fd5b50505050600061239d8247611edf90919063ffffffff16565b905060006123c7600b5461107f6123be60028b611f0390919063ffffffff16565b600c5490611edf565b905060006123dc60026115448481878d611ef7565b905060006123f98361154460095487611ef790919063ffffffff16565b9050600061241684611544600a5488611ef790919063ffffffff16565b9050601e60009054906101000a90046001600160a01b03166001600160a01b031663d0e30db0836040518263ffffffff1660e01b81526004016000604051808303818588803b15801561246857600080fd5b505af19350505050801561247a575060015b506005546040516001600160a01b039091169082156108fc029083906000818181858888f193505050501580156124b5573d6000803e3d6000fd5b506006546001600160a01b03166000908152601860205260409020546124db908c611eeb565b6006546001600160a01b031660009081526018602052604090205588156125d2576020546004805460405163f305d71960e01b81523092810192909252602482018c905260006044830181905260648301526001600160a01b0390811660848301524260a48301529091169063f305d71990859060c40160606040518083038185885af1158015612570573d6000803e3d6000fd5b50505050506040513d601f19601f820116820180604052508101906125959190612c35565b505060408051858152602081018c90527f424db2872186fa7e7afa7a5e902ed3b49a2ef19c2f5431e672462495dd6b450692500160405180910390a15b50506020805460ff60a01b19169055505050505050505050565b6001600160a01b03166000908152601a602052604090205460ff161590565b600080612629600d5461154460165486611ef790919063ffffffff16565b306000908152601860205260409020549091506126469082611eeb565b30600081815260186020526040908190209290925590516001600160a01b03871690600080516020612c64833981519152906126859085815260200190565b60405180910390a36126978382611edf565b95945050505050565b600d5460035460009182916126299190611544906126cb906001600160a01b038981169116146117b9565b8690611ef7565b6000602082840312156126e457600080fd5b5035919050565b6001600160a01b0391909116815260200190565b6001600160a01b038116811461170c57600080fd5b6000806040838503121561272757600080fd5b8235612732816126ff565b91506020830135612742816126ff565b809150509250929050565b600060208083528351808285015260005b8181101561277a5785810183015185820160400152820161275e565b8181111561278c576000604083870101525b50601f01601f1916929092016040019392505050565b600080604083850312156127b557600080fd5b82356127c0816126ff565b946020939093013593505050565b600080604083850312156127e157600080fd5b50508035926020909101359150565b8035801515811461280057600080fd5b919050565b6000806040838503121561281857600080fd5b8235612823816126ff565b9150612831602084016127f0565b90509250929050565b60008060006060848603121561284f57600080fd5b833561285a816126ff565b9250602084013561286a816126ff565b929592945050506040919091013590565b60006020828403121561288d57600080fd5b8135611029816126ff565b600080604083850312156128ab57600080fd5b6127c0836127f0565b60008060008060008060c087890312156128cd57600080fd5b505084359660208601359650604086013595606081013595506080810135945060a0013592509050565b60008060006060848603121561290c57600080fd5b8335612917816126ff565b92506020840135612927816126ff565b91506040840135612937816126ff565b809150509250925092565b60006020828403121561295457600080fd5b611029826127f0565b6020808252600b908201526a085055551213d49256915160aa1b604082015260600190565b634e487b7160e01b600052601160045260246000fd5b600181815b808511156129d35781600019048211156129b9576129b9612982565b808516156129c657918102915b93841c939080029061299d565b509250929050565b6000826129ea57506001610e2a565b816129f757506000610e2a565b8160018114612a0d5760028114612a1757612a33565b6001915050610e2a565b60ff841115612a2857612a28612982565b50506001821b610e2a565b5060208310610133831016604e8410600b8410161715612a56575081810a610e2a565b612a608383612998565b8060001904821115612a7457612a74612982565b029392505050565b600061102960ff8416836129db565b6000816000190483118215151615612aa557612aa5612982565b500290565b600060208284031215612abc57600080fd5b5051919050565b600082612ae057634e487b7160e01b600052601260045260246000fd5b500490565b60208082526006908201526510a7aba722a960d11b604082015260600190565b6001600160a01b03929092168252602082015260400190565b600082821015612b3057612b30612982565b500390565b60008219821115612b4857612b48612982565b500190565b600060208284031215612b5f57600080fd5b8151611029816126ff565b634e487b7160e01b600052603260045260246000fd5b600081518084526020808501945080840160005b83811015612bb95781516001600160a01b031687529582019590820190600101612b94565b509495945050505050565b848152608060208201526000612bdd6080830186612b80565b6001600160a01b03949094166040830152506060015292915050565b85815284602082015260a060408201526000612c1860a0830186612b80565b6001600160a01b0394909416606083015250608001529392505050565b600080600060608486031215612c4a57600080fd5b835192506020840151915060408401519050925092509256feddf252ad1be2c89b69c2b068fc378daa952ba7f163c4a11628f55a4df523b3efa2646970667358221220c6820f523c0bdda7ff1405bc6d263155abdc87546d5764ac917e24185ef569a064736f6c634300080c003360806040819052600180546001600160a01b03191673e9e7cea3dedca5984780bafc599bd69add087d569081179091556ec097ce7bc90715b34b9f1000000000600b55610e10600c5563313ce56760e01b82529063313ce56790608490602090600481865afa15801562000077573d6000803e3d6000fd5b505050506040513d601f19601f820116820180604052508101906200009d91906200011e565b620000aa90600a6200025f565b620000b790600162000270565b600d55348015620000c757600080fd5b50604051620011fe380380620011fe833981016040819052620000ea9162000292565b60008054336001600160a01b031991821617909155600280549091166001600160a01b0392909216919091179055620002bd565b6000602082840312156200013157600080fd5b815160ff811681146200014357600080fd5b9392505050565b634e487b7160e01b600052601160045260246000fd5b600181815b80851115620001a15781600019048211156200018557620001856200014a565b808516156200019357918102915b93841c939080029062000165565b509250929050565b600082620001ba5750600162000259565b81620001c95750600062000259565b8160018114620001e25760028114620001ed576200020d565b600191505062000259565b60ff8411156200020157620002016200014a565b50506001821b62000259565b5060208310610133831016604e8410600b841016171562000232575081810a62000259565b6200023e838362000160565b80600019048211156200025557620002556200014a565b0290505b92915050565b60006200014360ff841683620001a9565b60008160001904831182151516156200028d576200028d6200014a565b500290565b600060208284031215620002a557600080fd5b81516001600160a01b03811681146200014357600080fd5b610f3180620002cd6000396000f3fe60806040526004361061012a5760003560e01c8063ab377daa116100ab578063ecd0c0c31161006f578063ecd0c0c314610351578063efca2eed14610371578063f7c618c114610387578063f887ea40146103a7578063ffb2c479146103c7578063ffd49c84146103e757600080fd5b8063ab377daa14610282578063ce7c2ac2146102af578063d0e30db014610306578063d4fda1f21461030e578063e2d2e2191461033b57600080fd5b80633a98ef39116100f25780633a98ef39146101da5780634fab0ae8146101f057806352f481581461020657806366817df51461023f578063997664d71461026c57600080fd5b806311ce023d1461012f57806314b6ca961461015857806315f7e05e1461017a57806328fd31981461019a5780632d48e896146101ba575b600080fd5b34801561013b57600080fd5b50610145600b5481565b6040519081526020015b60405180910390f35b34801561016457600080fd5b50610178610173366004610cd4565b6103fd565b005b34801561018657600080fd5b50610178610195366004610d00565b610575565b3480156101a657600080fd5b506101456101b5366004610d00565b610581565b3480156101c657600080fd5b506101786101d5366004610d1d565b61060a565b3480156101e657600080fd5b5061014560075481565b3480156101fc57600080fd5b50610145600d5481565b34801561021257600080fd5b50610145610221366004610d00565b6001600160a01b031660009081526006602052604090206002015490565b34801561024b57600080fd5b5061014561025a366004610d00565b60056020526000908152604090205481565b34801561027857600080fd5b5061014560085481565b34801561028e57600080fd5b506102a261029d366004610d3f565b61062c565b60405161014f9190610d58565b3480156102bb57600080fd5b506102eb6102ca366004610d00565b60066020526000908152604090208054600182015460029092015490919083565b6040805193845260208401929092529082015260600161014f565b610178610656565b34801561031a57600080fd5b50610145610329366004610d00565b60046020526000908152604090205481565b34801561034757600080fd5b50610145600a5481565b34801561035d57600080fd5b506000546102a2906001600160a01b031681565b34801561037d57600080fd5b5061014560095481565b34801561039357600080fd5b506001546102a2906001600160a01b031681565b3480156103b357600080fd5b506002546102a2906001600160a01b031681565b3480156103d357600080fd5b506101786103e2366004610d3f565b6108ef565b3480156103f357600080fd5b50610145600c5481565b6000546001600160a01b0316331461041457600080fd5b6001600160a01b0382166000908152600660205260409020541561043b5761043b826109ef565b60008111801561046157506001600160a01b038216600090815260066020526040902054155b156104c757600380546001600160a01b0384166000818152600460205260408120839055600183018455929092527fc2575a0e9e593c00f959f8c92f12db2869c3395a3b0502d05e2516446f71f85b0180546001600160a01b03191690911790556104fa565b801580156104ec57506001600160a01b03821660009081526006602052604090205415155b156104fa576104fa82610b0b565b6001600160a01b03821660009081526006602052604090205460075461052b91839161052591610c20565b90610c33565b6007556001600160a01b038216600090815260066020526040902081905561055281610c3f565b6001600160a01b0390921660009081526006602052604090206001019190915550565b61057e816109ef565b50565b6001600160a01b0381166000908152600660205260408120546105a657506000919050565b6001600160a01b0382166000908152600660205260408120546105c890610c3f565b6001600160a01b0384166000908152600660205260409020600101549091508082116105f8575060009392505050565b6106028282610c20565b949350505050565b6000546001600160a01b0316331461062157600080fd5b600c91909155600d55565b6003818154811061063c57600080fd5b6000918252602090912001546001600160a01b0316905081565b6000546001600160a01b0316331461066d57600080fd5b6001546040516370a0823160e01b81526000916001600160a01b0316906370a082319061069e903090600401610d58565b602060405180830381865afa1580156106bb573d6000803e3d6000fd5b505050506040513d601f19601f820116820180604052508101906106df9190610d6c565b60408051600280825260608201835292935060009290916020830190803683375050600254604080516315ab88c960e31b815290519394506001600160a01b039091169263ad5c4648925060048083019260209291908290030181865afa15801561074e573d6000803e3d6000fd5b505050506040513d601f19601f820116820180604052508101906107729190610d85565b8160008151811061078557610785610da2565b6001600160a01b03928316602091820292909201015260018054835192169183919081106107b5576107b5610da2565b6001600160a01b03928316602091820292909201015260025460405163b6f9de9560e01b815291169063b6f9de959034906107fb90600090869030904290600401610db8565b6000604051808303818588803b15801561081457600080fd5b505af1158015610828573d6000803e3d6000fd5b50506001546040516370a0823160e01b8152600094506108ad93508692506001600160a01b03909116906370a0823190610866903090600401610d58565b602060405180830381865afa158015610883573d6000803e3d6000fd5b505050506040513d601f19601f820116820180604052508101906108a79190610d6c565b90610c20565b6008549091506108bd9082610c33565b600855600754600b546108e7916108de916108d89085610c62565b90610c6e565b600a5490610c33565b600a55505050565b6000546001600160a01b0316331461090657600080fd5b60035480610912575050565b6000805a905060005b848310801561092957508381105b156109e85783600e541061093d576000600e555b61096f6003600e548154811061095557610955610da2565b6000918252602090912001546001600160a01b0316610c7a565b156109a6576109a66003600e548154811061098c5761098c610da2565b6000918252602090912001546001600160a01b03166109ef565b6109bb6109b45a8490610c20565b8490610c33565b92505a600e805491935060006109d083610e38565b919050555080806109e090610e38565b91505061091b565b5050505050565b6001600160a01b038116600090815260066020526040902054610a0f5750565b6000610a1a82610581565b90508015610b0757600954610a2f9082610c33565b60095560015460405163a9059cbb60e01b81526001600160a01b038481166004830152602482018490529091169063a9059cbb906044016020604051808303816000875af1158015610a85573d6000803e3d6000fd5b505050506040513d601f19601f82011682018060405250810190610aa99190610e53565b506001600160a01b03821660009081526005602090815260408083204290556006909152902060020154610add9082610c33565b6001600160a01b038316600090815260066020526040902060028101919091555461055290610c3f565b5050565b60038054610b1b90600190610e75565b81548110610b2b57610b2b610da2565b60009182526020808320909101546001600160a01b0384811684526004909252604090922054600380549290931692918110610b6957610b69610da2565b600091825260208083209190910180546001600160a01b0319166001600160a01b03948516179055918316815260049182905260408120546003805491939291610bb590600190610e75565b81548110610bc557610bc5610da2565b60009182526020808320909101546001600160a01b031683528201929092526040019020556003805480610bfb57610bfb610e8c565b600082815260209020810160001990810180546001600160a01b031916905501905550565b6000610c2c8284610e75565b9392505050565b6000610c2c8284610ea2565b6000610c5c600b546108d8600a5485610c6290919063ffffffff16565b92915050565b6000610c2c8284610eba565b6000610c2c8284610ed9565b600c546001600160a01b03821660009081526005602052604081205490914291610ca49190610ea2565b108015610c5c5750600d54610cb883610581565b1192915050565b6001600160a01b038116811461057e57600080fd5b60008060408385031215610ce757600080fd5b8235610cf281610cbf565b946020939093013593505050565b600060208284031215610d1257600080fd5b8135610c2c81610cbf565b60008060408385031215610d3057600080fd5b50508035926020909101359150565b600060208284031215610d5157600080fd5b5035919050565b6001600160a01b0391909116815260200190565b600060208284031215610d7e57600080fd5b5051919050565b600060208284031215610d9757600080fd5b8151610c2c81610cbf565b634e487b7160e01b600052603260045260246000fd5b600060808201868352602060808185015281875180845260a086019150828901935060005b81811015610e025784516001600160a01b031683529383019391830191600101610ddd565b50506001600160a01b039690961660408501525050506060015292915050565b634e487b7160e01b600052601160045260246000fd5b6000600019821415610e4c57610e4c610e22565b5060010190565b600060208284031215610e6557600080fd5b81518015158114610c2c57600080fd5b600082821015610e8757610e87610e22565b500390565b634e487b7160e01b600052603160045260246000fd5b60008219821115610eb557610eb5610e22565b500190565b6000816000190483118215151615610ed457610ed4610e22565b500290565b600082610ef657634e487b7160e01b600052601260045260246000fd5b50049056fea2646970667358221220aa532b232e157c1ed247df041b9872bc9adc1407fc359bcf6d6ebaefd5a74b4b64736f6c634300080c0033",
  "immutableReferences": {},
  "source": "pragma solidity ^0.8.10;\r\n\r\n// SPDX-License-Identifier: UNLICENSED\r\n\r\nlibrary SafeMath {\r\n    function tryAdd(uint256 a, uint256 b)\r\n    internal\r\n    pure\r\n    returns (bool, uint256)\r\n    {\r\n    unchecked {\r\n        uint256 c = a + b;\r\n        if (c < a) return (false, 0);\r\n        return (true, c);\r\n    }\r\n    }\r\n\r\n    function trySub(uint256 a, uint256 b)\r\n    internal\r\n    pure\r\n    returns (bool, uint256)\r\n    {\r\n    unchecked {\r\n        if (b > a) return (false, 0);\r\n        return (true, a - b);\r\n    }\r\n    }\r\n\r\n    function tryMul(uint256 a, uint256 b)\r\n    internal\r\n    pure\r\n    returns (bool, uint256)\r\n    {\r\n    unchecked {\r\n        // Gas optimization: this is cheaper than requiring 'a' not being zero, but the\r\n        // benefit is lost if 'b' is also tested.\r\n        // See: https://github.com/OpenZeppelin/openzeppelin-contracts/pull/522\r\n        if (a == 0) return (true, 0);\r\n        uint256 c = a * b;\r\n        if (c / a != b) return (false, 0);\r\n        return (true, c);\r\n    }\r\n    }\r\n\r\n    function tryDiv(uint256 a, uint256 b)\r\n    internal\r\n    pure\r\n    returns (bool, uint256)\r\n    {\r\n    unchecked {\r\n        if (b == 0) return (false, 0);\r\n        return (true, a / b);\r\n    }\r\n    }\r\n\r\n    function tryMod(uint256 a, uint256 b)\r\n    internal\r\n    pure\r\n    returns (bool, uint256)\r\n    {\r\n    unchecked {\r\n        if (b == 0) return (false, 0);\r\n        return (true, a % b);\r\n    }\r\n    }\r\n\r\n    function add(uint256 a, uint256 b) internal pure returns (uint256) {\r\n        return a + b;\r\n    }\r\n\r\n    function sub(uint256 a, uint256 b) internal pure returns (uint256) {\r\n        return a - b;\r\n    }\r\n\r\n    function mul(uint256 a, uint256 b) internal pure returns (uint256) {\r\n        return a * b;\r\n    }\r\n\r\n    function div(uint256 a, uint256 b) internal pure returns (uint256) {\r\n        return a / b;\r\n    }\r\n\r\n    function mod(uint256 a, uint256 b) internal pure returns (uint256) {\r\n        return a % b;\r\n    }\r\n\r\n    function sub(\r\n        uint256 a,\r\n        uint256 b,\r\n        string memory errorMessage\r\n    ) internal pure returns (uint256) {\r\n    unchecked {\r\n        require(b <= a, errorMessage);\r\n        return a - b;\r\n    }\r\n    }\r\n\r\n    function div(\r\n        uint256 a,\r\n        uint256 b,\r\n        string memory errorMessage\r\n    ) internal pure returns (uint256) {\r\n    unchecked {\r\n        require(b > 0, errorMessage);\r\n        return a / b;\r\n    }\r\n    }\r\n\r\n    function mod(\r\n        uint256 a,\r\n        uint256 b,\r\n        string memory errorMessage\r\n    ) internal pure returns (uint256) {\r\n    unchecked {\r\n        require(b > 0, errorMessage);\r\n        return a % b;\r\n    }\r\n    }\r\n}\r\n\r\ninterface IUniswapV2Factory {\r\n    function createPair(address tokenA, address tokenB)\r\n    external\r\n    returns (address pair);\r\n}\r\n\r\ninterface IDexRouter {\r\n    function factory() external pure returns (address);\r\n\r\n    function WETH() external pure returns (address);\r\n\r\n    function addLiquidityETH(\r\n        address token,\r\n        uint256 amountTokenDesired,\r\n        uint256 amountTokenMin,\r\n        uint256 amountETHMin,\r\n        address to,\r\n        uint256 deadline\r\n    )\r\n    external\r\n    payable\r\n    returns (\r\n        uint256 amountToken,\r\n        uint256 amountETH,\r\n        uint256 liquidity\r\n    );\r\n\r\n    function swapExactETHForTokensSupportingFeeOnTransferTokens(\r\n        uint256 amountOutMin,\r\n        address[] calldata path,\r\n        address to,\r\n        uint256 deadline\r\n    ) external payable;\r\n\r\n    function swapExactTokensForETHSupportingFeeOnTransferTokens(\r\n        uint256 amountIn,\r\n        uint256 amountOutMin,\r\n        address[] calldata path,\r\n        address to,\r\n        uint256 deadline\r\n    ) external;\r\n}\r\n\r\ninterface IERC20Extended {\r\n    function totalSupply() external view returns (uint256);\r\n\r\n    function decimals() external view returns (uint8);\r\n\r\n    function symbol() external view returns (string memory);\r\n\r\n    function name() external view returns (string memory);\r\n\r\n    function balanceOf(address account) external view returns (uint256);\r\n\r\n    function transfer(address recipient, uint256 amount)\r\n    external\r\n    returns (bool);\r\n\r\n    function allowance(address _owner, address spender)\r\n    external\r\n    view\r\n    returns (uint256);\r\n\r\n    function approve(address spender, uint256 amount) external returns (bool);\r\n\r\n    function transferFrom(\r\n        address sender,\r\n        address recipient,\r\n        uint256 amount\r\n    ) external returns (bool);\r\n\r\n    event Transfer(address indexed from, address indexed to, uint256 value);\r\n    event Approval(\r\n        address indexed owner,\r\n        address indexed spender,\r\n        uint256 value\r\n    );\r\n}\r\n\r\ninterface IStackedStaking {\r\n    function stakedTokens(address user) external returns (uint256);\r\n}\r\n\r\nabstract contract Auth {\r\n    address internal owner;\r\n    mapping(address => bool) internal authorizations;\r\n\r\n    constructor(address _owner) {\r\n        owner = _owner;\r\n        authorizations[_owner] = true;\r\n    }\r\n\r\n    modifier onlyOwner() {\r\n        require(isOwner(msg.sender), \"!OWNER\");\r\n        _;\r\n    }\r\n\r\n    modifier authorized() {\r\n        require(isAuthorized(msg.sender), \"!AUTHORIZED\");\r\n        _;\r\n    }\r\n\r\n    function authorize(address adr) public onlyOwner {\r\n        authorizations[adr] = true;\r\n    }\r\n\r\n    function unauthorize(address adr) public onlyOwner {\r\n        authorizations[adr] = false;\r\n    }\r\n\r\n    function isOwner(address account) public view returns (bool) {\r\n        return account == owner;\r\n    }\r\n\r\n    function isAuthorized(address adr) public view returns (bool) {\r\n        return authorizations[adr];\r\n    }\r\n\r\n    function transferOwnership(address payable adr) public onlyOwner {\r\n        owner = adr;\r\n        authorizations[adr] = true;\r\n        emit OwnershipTransferred(adr);\r\n    }\r\n\r\n    event OwnershipTransferred(address owner);\r\n}\r\n\r\ninterface IDividendDistributor {\r\n    function setDistributionCriteria(\r\n        uint256 _minPeriod,\r\n        uint256 _minDistribution\r\n    ) external;\r\n\r\n    function setShare(address shareholder, uint256 amount) external;\r\n\r\n    function deposit() external payable;\r\n\r\n    function process(uint256 gas) external;\r\n\r\n    function claimDividend(address _user) external;\r\n\r\n    function getPaidEarnings(address shareholder)\r\n    external\r\n    view\r\n    returns (uint256);\r\n\r\n    function getUnpaidEarnings(address shareholder)\r\n    external\r\n    view\r\n    returns (uint256);\r\n\r\n    function totalDistributed() external view returns (uint256);\r\n}\r\n\r\ncontract DividendDistributor is IDividendDistributor {\r\n    using SafeMath for uint256;\r\n\r\n    address public _token;\r\n\r\n    struct Share {\r\n        uint256 amount;\r\n        uint256 totalExcluded;\r\n        uint256 totalRealised;\r\n    }\r\n\r\n    IERC20Extended public rewardToken =\r\n    IERC20Extended(0xe9e7CEA3DedcA5984780Bafc599bD69ADd087D56);\r\n    IDexRouter public router;\r\n\r\n    address[] public shareholders;\r\n    mapping(address => uint256) public shareholderIndexes;\r\n    mapping(address => uint256) public shareholderClaims;\r\n\r\n    mapping(address => Share) public shares;\r\n\r\n    uint256 public totalShares;\r\n    uint256 public totalDividends;\r\n    uint256 public totalDistributed;\r\n    uint256 public dividendsPerShare;\r\n    uint256 public dividendsPerShareAccuracyFactor = 10**36;\r\n\r\n    uint256 public minPeriod = 1 hours;\r\n    uint256 public minDistribution = 1 * (10**rewardToken.decimals());\r\n\r\n    uint256 currentIndex;\r\n\r\n    bool initialized;\r\n    modifier initializer() {\r\n        require(!initialized);\r\n        _;\r\n        initialized = true;\r\n    }\r\n\r\n    modifier onlyToken() {\r\n        require(msg.sender == _token);\r\n        _;\r\n    }\r\n\r\n    constructor(address router_) {\r\n        _token = msg.sender;\r\n        router = IDexRouter(router_);\r\n    }\r\n\r\n    function setDistributionCriteria(\r\n        uint256 _minPeriod,\r\n        uint256 _minDistribution\r\n    ) external override onlyToken {\r\n        minPeriod = _minPeriod;\r\n        minDistribution = _minDistribution;\r\n    }\r\n\r\n    function setShare(address shareholder, uint256 amount)\r\n    external\r\n    override\r\n    onlyToken\r\n    {\r\n        if (shares[shareholder].amount > 0) {\r\n            distributeDividend(shareholder);\r\n        }\r\n\r\n        if (amount > 0 && shares[shareholder].amount == 0) {\r\n            addShareholder(shareholder);\r\n        } else if (amount == 0 && shares[shareholder].amount > 0) {\r\n            removeShareholder(shareholder);\r\n        }\r\n\r\n        totalShares = totalShares.sub(shares[shareholder].amount).add(amount);\r\n        shares[shareholder].amount = amount;\r\n        shares[shareholder].totalExcluded = getCumulativeDividends(\r\n            shares[shareholder].amount\r\n        );\r\n    }\r\n\r\n    function deposit() external payable override onlyToken {\r\n        uint256 balanceBefore = rewardToken.balanceOf(address(this));\r\n\r\n        address[] memory path = new address[](2);\r\n        path[0] = router.WETH();\r\n        path[1] = address(rewardToken);\r\n\r\n        router.swapExactETHForTokensSupportingFeeOnTransferTokens{\r\n        value: msg.value\r\n        }(0, path, address(this), block.timestamp);\r\n\r\n        uint256 amount = rewardToken.balanceOf(address(this)).sub(\r\n            balanceBefore\r\n        );\r\n\r\n        totalDividends = totalDividends.add(amount);\r\n        dividendsPerShare = dividendsPerShare.add(\r\n            dividendsPerShareAccuracyFactor.mul(amount).div(totalShares)\r\n        );\r\n    }\r\n\r\n    function process(uint256 gas) external override onlyToken {\r\n        uint256 shareholderCount = shareholders.length;\r\n\r\n        if (shareholderCount == 0) {\r\n            return;\r\n        }\r\n\r\n        uint256 gasUsed = 0;\r\n        uint256 gasLeft = gasleft();\r\n\r\n        uint256 iterations = 0;\r\n\r\n        while (gasUsed < gas && iterations < shareholderCount) {\r\n            if (currentIndex >= shareholderCount) {\r\n                currentIndex = 0;\r\n            }\r\n\r\n            if (shouldDistribute(shareholders[currentIndex])) {\r\n                distributeDividend(shareholders[currentIndex]);\r\n            }\r\n\r\n            gasUsed = gasUsed.add(gasLeft.sub(gasleft()));\r\n            gasLeft = gasleft();\r\n            currentIndex++;\r\n            iterations++;\r\n        }\r\n    }\r\n\r\n    function shouldDistribute(address shareholder)\r\n    internal\r\n    view\r\n    returns (bool)\r\n    {\r\n        return\r\n        shareholderClaims[shareholder] + minPeriod < block.timestamp &&\r\n        getUnpaidEarnings(shareholder) > minDistribution;\r\n    }\r\n\r\n    function distributeDividend(address shareholder) internal {\r\n        if (shares[shareholder].amount == 0) {\r\n            return;\r\n        }\r\n\r\n        uint256 amount = getUnpaidEarnings(shareholder);\r\n        if (amount > 0) {\r\n            totalDistributed = totalDistributed.add(amount);\r\n            rewardToken.transfer(shareholder, amount);\r\n            shareholderClaims[shareholder] = block.timestamp;\r\n            shares[shareholder].totalRealised = shares[shareholder]\r\n            .totalRealised\r\n            .add(amount);\r\n            shares[shareholder].totalExcluded = getCumulativeDividends(\r\n                shares[shareholder].amount\r\n            );\r\n        }\r\n    }\r\n\r\n    function claimDividend(address _user) external {\r\n        distributeDividend(_user);\r\n    }\r\n\r\n    function getPaidEarnings(address shareholder)\r\n    public\r\n    view\r\n    returns (uint256)\r\n    {\r\n        return shares[shareholder].totalRealised;\r\n    }\r\n\r\n    function getUnpaidEarnings(address shareholder)\r\n    public\r\n    view\r\n    returns (uint256)\r\n    {\r\n        if (shares[shareholder].amount == 0) {\r\n            return 0;\r\n        }\r\n\r\n        uint256 shareholderTotalDividends = getCumulativeDividends(\r\n            shares[shareholder].amount\r\n        );\r\n        uint256 shareholderTotalExcluded = shares[shareholder].totalExcluded;\r\n\r\n        if (shareholderTotalDividends <= shareholderTotalExcluded) {\r\n            return 0;\r\n        }\r\n\r\n        return shareholderTotalDividends.sub(shareholderTotalExcluded);\r\n    }\r\n\r\n    function getCumulativeDividends(uint256 share)\r\n    internal\r\n    view\r\n    returns (uint256)\r\n    {\r\n        return\r\n        share.mul(dividendsPerShare).div(dividendsPerShareAccuracyFactor);\r\n    }\r\n\r\n    function addShareholder(address shareholder) internal {\r\n        shareholderIndexes[shareholder] = shareholders.length;\r\n        shareholders.push(shareholder);\r\n    }\r\n\r\n    function removeShareholder(address shareholder) internal {\r\n        shareholders[shareholderIndexes[shareholder]] = shareholders[\r\n        shareholders.length - 1\r\n        ];\r\n        shareholderIndexes[\r\n        shareholders[shareholders.length - 1]\r\n        ] = shareholderIndexes[shareholder];\r\n        shareholders.pop();\r\n    }\r\n}\r\n\r\ncontract STACKDFinance is IERC20Extended, Auth {\r\n    using SafeMath for uint256;\r\n\r\n    string private constant _name = \"STACKD Finance\";\r\n    string private constant _symbol = \"STACKD\";\r\n    uint8 private constant _decimals = 18;\r\n    uint256 private constant _totalSupply =\r\n    20_000_000_000 * 10**_decimals;\r\n\r\n    address public rewardToken = 0xe9e7CEA3DedcA5984780Bafc599bD69ADd087D56; // BUSD\r\n    address public constant DEAD = address(0xdead);\r\n    address public constant ZERO = address(0);\r\n    address public pair;\r\n    address public autoLiquidityReceiver = 0x393B9D84495FdAf7098dd623260Af93274F4Bcb1; // address to receive LP tokens from liquidity add from fee\r\n    address public marketingFeeReceiver = 0xEe8948866c7885e36C928cfd702947512cf7067e; // address to receive marketing fee\r\n    address public stakingFeeReceiver = 0x550DbD64c3dA1E285A1598784013d79a84dEd60F; // address to receive staking fee\r\n\r\n    // fees info\r\n    uint256 public liquidityFee = 200;\r\n    uint256 public buybackFee = 100;\r\n    uint256 public reflectionFee = 1500;\r\n    uint256 public marketingFee = 100;\r\n    uint256 public stakingFee = 100;\r\n    uint256 public totalFee = 2000;\r\n    uint256 public feeDenominator = 10000;\r\n    uint256 public sellMultiplier = 1;\r\n\r\n    // Determines whether to add liquidity fee to liquidity, target liquidity is 25%\r\n    uint256 public targetLiquidity = 25;\r\n    uint256 public targetLiquidityDenominator = 100;\r\n\r\n    uint256 public distributorGas = 500000;\r\n    uint256 public antiWhaleSellLimitDenominator = 1000;\r\n    uint256 public swapThreshold = _totalSupply / 20000;\r\n    uint256 public startBlock;\r\n    uint256 private deadBlocks;\r\n    uint256 private sniperFee;\r\n\r\n    bool public sellMultiplierEnabled;\r\n    bool public swapEnabled = true;\r\n    bool public enableStaking;\r\n    bool public tradingEnabled;\r\n\r\n    mapping(address => uint256) private _balances;\r\n    mapping(address => mapping(address => uint256)) private _allowances;\r\n    mapping(address => bool) public isFeeExempt;\r\n    mapping(address => bool) public isDividendExempt;\r\n    mapping(address => bool) public canTransferBeforeTradingIsEnabled;\r\n    mapping(address => bool) public excludedFromSellLimit;\r\n\r\n    DividendDistributor public distributor;\r\n    IStackedStaking public stake;\r\n    IDexRouter public router;\r\n\r\n    event AutoLiquify(uint256 amountBNB, uint256 amountBOG);\r\n\r\n    bool inSwap;\r\n    modifier swapping() {\r\n        inSwap = true;\r\n        _;\r\n        inSwap = false;\r\n    }\r\n\r\n\r\n    constructor(\r\n        address router_ // 0x10ed43c718714eb63d5aa57b78b54704e256024e\r\n    )\r\n    payable\r\n    Auth(msg.sender)\r\n    {\r\n\r\n        router = IDexRouter(router_);\r\n        pair = IUniswapV2Factory(router.factory()).createPair(\r\n            address(this),\r\n            router.WETH()\r\n        );\r\n        distributor = new DividendDistributor(router_);\r\n\r\n        isFeeExempt[msg.sender] = true;\r\n        isFeeExempt[marketingFeeReceiver] = true;\r\n        isFeeExempt[autoLiquidityReceiver] = true;\r\n        isFeeExempt[stakingFeeReceiver] = true;\r\n\r\n        isDividendExempt[msg.sender] = true;\r\n        isDividendExempt[autoLiquidityReceiver] = true;\r\n        isDividendExempt[pair] = true;\r\n        isDividendExempt[address(this)] = true;\r\n        isDividendExempt[DEAD] = true;\r\n        isDividendExempt[ZERO] = true;\r\n\r\n        canTransferBeforeTradingIsEnabled[msg.sender] = true;\r\n        canTransferBeforeTradingIsEnabled[marketingFeeReceiver] = true;\r\n\r\n        _allowances[address(this)][address(router)] = _totalSupply;\r\n        _allowances[address(this)][address(pair)] = _totalSupply;\r\n\r\n        _balances[msg.sender] = _totalSupply;\r\n        emit Transfer(address(0), msg.sender, _totalSupply);\r\n    }\r\n\r\n    receive() external payable {}\r\n\r\n\r\n    // Anti-Bot\r\n    function enableTrading(\r\n        uint _deadBlocks,\r\n        uint _sniperFee\r\n    )\r\n    external\r\n    authorized\r\n    {\r\n        tradingEnabled = true;\r\n        startBlock = block.number;\r\n        deadBlocks = _deadBlocks;\r\n        sniperFee = _sniperFee; // in basis points, base 10000\r\n    }\r\n\r\n\r\n    // Whitelist pinksale\r\n    function setPresale(\r\n        address presaleAddress\r\n    )\r\n    external\r\n    authorized\r\n    {\r\n        isFeeExempt[presaleAddress] = true;\r\n        isDividendExempt[presaleAddress] = true;\r\n        canTransferBeforeTradingIsEnabled[presaleAddress] = true;\r\n        excludedFromSellLimit[presaleAddress] = true;\r\n    }\r\n\r\n\r\n    // Standard ERC-20 Functions\r\n    function totalSupply()\r\n    external\r\n    pure\r\n    override\r\n    returns (uint256)\r\n    {\r\n        return _totalSupply;\r\n    }\r\n\r\n\r\n    function decimals()\r\n    external\r\n    pure\r\n    override\r\n    returns (uint8)\r\n    {\r\n        return _decimals;\r\n    }\r\n\r\n\r\n    function symbol()\r\n    external\r\n    pure\r\n    override\r\n    returns (string memory)\r\n    {\r\n        return _symbol;\r\n    }\r\n\r\n\r\n    function name()\r\n    external\r\n    pure\r\n    override\r\n    returns (string memory)\r\n    {\r\n        return _name;\r\n    }\r\n\r\n\r\n    function balanceOf(\r\n        address account\r\n    )\r\n    public\r\n    view\r\n    override\r\n    returns (uint256)\r\n    {\r\n        return _balances[account];\r\n    }\r\n\r\n\r\n    function allowance(\r\n        address holder,\r\n        address spender\r\n    )\r\n    external\r\n    view\r\n    override\r\n    returns (uint256)\r\n    {\r\n        return _allowances[holder][spender];\r\n    }\r\n\r\n\r\n    function approve(\r\n        address spender,\r\n        uint256 amount\r\n    )\r\n    public\r\n    override\r\n    returns (bool)\r\n    {\r\n        _allowances[msg.sender][spender] = amount;\r\n        emit Approval(msg.sender, spender, amount);\r\n        return true;\r\n    }\r\n\r\n\r\n    function approveMax(\r\n        address spender\r\n    )\r\n    external\r\n    returns (bool)\r\n    {\r\n        return approve(spender, _totalSupply);\r\n    }\r\n\r\n\r\n    function transfer(\r\n        address recipient,\r\n        uint256 amount\r\n    )\r\n    external\r\n    override\r\n    returns (bool)\r\n    {\r\n        return _transferFrom(msg.sender, recipient, amount);\r\n    }\r\n\r\n\r\n    function transferFrom(\r\n        address sender,\r\n        address recipient,\r\n        uint256 amount\r\n    )\r\n    external\r\n    override\r\n    returns (bool)\r\n    {\r\n        if (_allowances[sender][msg.sender] != _totalSupply) {\r\n            _allowances[sender][msg.sender] = _allowances[sender][msg.sender]\r\n            .sub(amount, \"Insufficient Allowance\");\r\n        }\r\n\r\n        return _transferFrom(sender, recipient, amount);\r\n    }\r\n\r\n\r\n    function _transferFrom(\r\n        address sender,\r\n        address recipient,\r\n        uint256 amount\r\n    )\r\n    internal\r\n    returns (bool)\r\n    {\r\n\r\n        if (!tradingEnabled) {\r\n            require(canTransferBeforeTradingIsEnabled[sender], \"You cannot transfer before trading is enabled\");\r\n        }\r\n\r\n        if (enableStaking) {\r\n            require(\r\n                _balances[sender].sub(amount) >= stake.stakedTokens(sender),\r\n                \"Can not send staked token\"\r\n            );\r\n        }\r\n\r\n        if (recipient == pair && sender != owner && !excludedFromSellLimit[sender]) {\r\n            uint256 sellLimit = getAntiWhaleSellLimit();\r\n            require(amount <= sellLimit, \"Antiwhale limit exceeded\");\r\n        }\r\n\r\n        if (inSwap) {\r\n            return _basicTransfer(sender, recipient, amount);\r\n        }\r\n\r\n        if (shouldSwapBack()) {\r\n            swapBack();\r\n        }\r\n\r\n        _balances[sender] = _balances[sender].sub(\r\n            amount,\r\n            \"Insufficient Balance\"\r\n        );\r\n\r\n        uint256 amountReceived;\r\n        if (block.number < startBlock.add(deadBlocks)) {\r\n            amountReceived = shouldTakeFee(sender)\r\n            ? takeSniperFee(sender, recipient, amount)\r\n            : amount;\r\n        }\r\n        else {\r\n            amountReceived = shouldTakeFee(sender)\r\n            ? takeFee(sender, recipient, amount)\r\n            : amount;\r\n        }\r\n\r\n        _balances[recipient] = _balances[recipient].add(amountReceived);\r\n\r\n        if (!isDividendExempt[sender]) {\r\n            try distributor.setShare(sender, _balances[sender]) {} catch {}\r\n        }\r\n        if (!isDividendExempt[recipient]) {\r\n            try\r\n            distributor.setShare(recipient, _balances[recipient])\r\n            {} catch {}\r\n        }\r\n\r\n        try distributor.process(distributorGas) {} catch {}\r\n\r\n        emit Transfer(sender, recipient, amountReceived);\r\n        return true;\r\n    }\r\n\r\n\r\n    function _basicTransfer(\r\n        address sender,\r\n        address recipient,\r\n        uint256 amount\r\n    )\r\n    internal\r\n    returns (bool)\r\n    {\r\n        _balances[sender] = _balances[sender].sub(\r\n            amount,\r\n            \"Insufficient Balance\"\r\n        );\r\n        _balances[recipient] = _balances[recipient].add(amount);\r\n        emit Transfer(sender, recipient, amount);\r\n        return true;\r\n    }\r\n\r\n\r\n    function shouldTakeFee(\r\n        address sender\r\n    )\r\n    internal\r\n    view\r\n    returns (bool)\r\n    {\r\n        return !isFeeExempt[sender];\r\n    }\r\n\r\n\r\n    function getTotalFee(\r\n        bool selling\r\n    )\r\n    public\r\n    view\r\n    returns (uint256)\r\n    {\r\n        if (selling) {\r\n            return getMultipliedFee();\r\n        }\r\n        return totalFee;\r\n    }\r\n\r\n\r\n    function getMultipliedFee()\r\n    public\r\n    view\r\n    returns (uint256)\r\n    {\r\n        if (sellMultiplierEnabled) {\r\n            return totalFee.mul(sellMultiplier);\r\n        }\r\n        return totalFee;\r\n    }\r\n\r\n\r\n    function takeFee(\r\n        address sender,\r\n        address receiver,\r\n        uint256 amount\r\n    )\r\n    internal\r\n    returns (uint256)\r\n    {\r\n        uint256 feeAmount = amount.mul(getTotalFee(receiver == pair)).div(\r\n            feeDenominator\r\n        );\r\n\r\n        _balances[address(this)] = _balances[address(this)].add(feeAmount);\r\n        emit Transfer(sender, address(this), feeAmount);\r\n\r\n        return amount.sub(feeAmount);\r\n    }\r\n\r\n\r\n    function takeSniperFee(\r\n        address sender,\r\n        address receiver,\r\n        uint256 amount\r\n    )\r\n    internal\r\n    returns (uint256)\r\n    {\r\n        uint256 feeAmount = amount.mul(sniperFee).div(\r\n            feeDenominator\r\n        );\r\n\r\n        _balances[address(this)] = _balances[address(this)].add(feeAmount);\r\n        emit Transfer(sender, address(this), feeAmount);\r\n\r\n        return amount.sub(feeAmount);\r\n    }\r\n\r\n\r\n    function shouldSwapBack()\r\n    internal\r\n    view\r\n    returns (bool)\r\n    {\r\n        return\r\n        msg.sender != pair &&\r\n        !inSwap &&\r\n        swapEnabled &&\r\n        _balances[address(this)] >= swapThreshold;\r\n    }\r\n\r\n\r\n    function swapBack()\r\n    internal\r\n    swapping\r\n    {\r\n        uint256 amountTokenStaking = swapThreshold.mul(stakingFee).div(\r\n            totalFee\r\n        );\r\n        uint256 dynamicLiquidityFee = isOverLiquified(\r\n            targetLiquidity,\r\n            targetLiquidityDenominator\r\n        )\r\n        ? 0\r\n        : liquidityFee;\r\n        uint256 amountToLiquify = swapThreshold\r\n        .mul(dynamicLiquidityFee)\r\n        .div(totalFee)\r\n        .div(2);\r\n        uint256 amountToSwap = swapThreshold.sub(amountToLiquify).sub(\r\n            amountTokenStaking\r\n        );\r\n\r\n        address[] memory path = new address[](2);\r\n        path[0] = address(this);\r\n        path[1] = router.WETH();\r\n        uint256 balanceBefore = address(this).balance;\r\n\r\n        router.swapExactTokensForETHSupportingFeeOnTransferTokens(\r\n            amountToSwap,\r\n            0,\r\n            path,\r\n            address(this),\r\n            block.timestamp\r\n        );\r\n\r\n        uint256 amountBNB = address(this).balance.sub(balanceBefore);\r\n\r\n        uint256 totalBNBFee = totalFee.sub(dynamicLiquidityFee.div(2)).sub(\r\n            stakingFee\r\n        );\r\n\r\n        uint256 amountBNBLiquidity = amountBNB\r\n        .mul(dynamicLiquidityFee)\r\n        .div(totalBNBFee)\r\n        .div(2);\r\n        uint256 amountBNBReflection = amountBNB.mul(reflectionFee).div(\r\n            totalBNBFee\r\n        );\r\n        uint256 amountBNBMarketing = amountBNB.mul(marketingFee).div(\r\n            totalBNBFee\r\n        );\r\n\r\n        try distributor.deposit{value: amountBNBReflection}() {} catch {}\r\n        payable(marketingFeeReceiver).transfer(amountBNBMarketing);\r\n        _balances[stakingFeeReceiver] = _balances[stakingFeeReceiver].add(\r\n            amountTokenStaking\r\n        );\r\n\r\n        if (amountToLiquify > 0) {\r\n            router.addLiquidityETH{value: amountBNBLiquidity}(\r\n                address(this),\r\n                amountToLiquify,\r\n                0,\r\n                0,\r\n                autoLiquidityReceiver,\r\n                block.timestamp\r\n            );\r\n            emit AutoLiquify(amountBNBLiquidity, amountToLiquify);\r\n        }\r\n    }\r\n\r\n\r\n    // Buyback and burn\r\n    function triggerManualBuyback(\r\n        uint256 amount\r\n    )\r\n    external\r\n    authorized\r\n    {\r\n        buyTokens(amount, DEAD);\r\n    }\r\n\r\n\r\n    function buyTokens(\r\n        uint256 amount,\r\n        address to\r\n    )\r\n    internal\r\n    swapping\r\n    {\r\n        address[] memory path = new address[](2);\r\n        path[0] = router.WETH();\r\n        path[1] = address(this);\r\n\r\n        router.swapExactETHForTokensSupportingFeeOnTransferTokens{\r\n            value: amount\r\n        }(0, path, to, block.timestamp);\r\n    }\r\n\r\n\r\n    function claimDividend()\r\n    external\r\n    {\r\n        distributor.claimDividend(msg.sender);\r\n    }\r\n\r\n\r\n    function getPaidDividend(\r\n        address shareholder\r\n    )\r\n    public\r\n    view\r\n    returns (uint256)\r\n    {\r\n        return distributor.getPaidEarnings(shareholder);\r\n    }\r\n\r\n\r\n    function getUnpaidDividend(\r\n        address shareholder\r\n    )\r\n    external\r\n    view\r\n    returns (uint256)\r\n    {\r\n        return distributor.getUnpaidEarnings(shareholder);\r\n    }\r\n\r\n\r\n    function getTotalDistributedDividend()\r\n    external\r\n    view\r\n    returns (uint256)\r\n    {\r\n        return distributor.totalDistributed();\r\n    }\r\n\r\n\r\n    function setRoute(\r\n        address _router,\r\n        address _pair\r\n    )\r\n    external\r\n    authorized\r\n    {\r\n        router = IDexRouter(_router);\r\n        pair = _pair;\r\n    }\r\n\r\n\r\n    function setIsDividendExempt(\r\n        address holder,\r\n        bool exempt\r\n    )\r\n    external\r\n    authorized\r\n    {\r\n        require(holder != address(this) && holder != pair);\r\n        isDividendExempt[holder] = exempt;\r\n        if (exempt) {\r\n            distributor.setShare(holder, 0);\r\n        } else {\r\n            distributor.setShare(holder, _balances[holder]);\r\n        }\r\n    }\r\n\r\n\r\n    function setIsFeeExempt(\r\n        address holder,\r\n        bool exempt\r\n    )\r\n    external\r\n    authorized\r\n    {\r\n        isFeeExempt[holder] = exempt;\r\n    }\r\n\r\n\r\n    function setExcludedFromSellLimit(\r\n        address _address,\r\n        bool _value\r\n    )\r\n    external\r\n    authorized\r\n    {\r\n        excludedFromSellLimit[_address] = _value;\r\n    }\r\n\r\n\r\n    function setFees(\r\n        uint256 _liquidityFee,\r\n        uint256 _buybackFee,\r\n        uint256 _reflectionFee,\r\n        uint256 _marketingFee,\r\n        uint256 _stakingFee,\r\n        uint256 _feeDenominator\r\n    )\r\n    external\r\n    authorized\r\n    {\r\n        liquidityFee = _liquidityFee;\r\n        buybackFee = _buybackFee;\r\n        reflectionFee = _reflectionFee;\r\n        marketingFee = _marketingFee;\r\n        stakingFee = _stakingFee;\r\n        totalFee = _liquidityFee\r\n        .add(_buybackFee)\r\n        .add(_reflectionFee)\r\n        .add(_marketingFee)\r\n        .add(_stakingFee);\r\n        feeDenominator = _feeDenominator;\r\n        require(\r\n            totalFee < feeDenominator / 4,\r\n            \"Total fee should not be greater than 1/4 of fee denominator\"\r\n        );\r\n    }\r\n\r\n\r\n    function setFeeReceivers(\r\n        address _autoLiquidityReceiver,\r\n        address _marketingFeeReceiver,\r\n        address _stakingFeeReceiver\r\n    )\r\n    external\r\n    authorized\r\n    {\r\n        autoLiquidityReceiver = _autoLiquidityReceiver;\r\n        marketingFeeReceiver = _marketingFeeReceiver;\r\n        stakingFeeReceiver = _stakingFeeReceiver;\r\n    }\r\n\r\n\r\n    function setStakeAddress(\r\n        address _staking,\r\n        bool _enable\r\n    )\r\n    external\r\n    authorized\r\n    {\r\n        stake = IStackedStaking(_staking);\r\n        enableStaking = _enable;\r\n    }\r\n\r\n\r\n    function setSwapBackSettings(\r\n        bool _enabled,\r\n        uint256 _amount\r\n    )\r\n    external\r\n    authorized\r\n    {\r\n        swapEnabled = _enabled;\r\n        swapThreshold = _amount;\r\n    }\r\n\r\n\r\n    function setTargetLiquidity(\r\n        uint256 _target,\r\n        uint256 _denominator\r\n    )\r\n    external\r\n    authorized\r\n    {\r\n        targetLiquidity = _target;\r\n        targetLiquidityDenominator = _denominator;\r\n    }\r\n\r\n\r\n    function setDistributionCriteria(\r\n        uint256 _minPeriod,\r\n        uint256 _minDistribution\r\n    )\r\n    external\r\n    authorized\r\n    {\r\n        distributor.setDistributionCriteria(_minPeriod, _minDistribution);\r\n    }\r\n\r\n\r\n    function setDistributorSettings(\r\n        uint256 gas\r\n    )\r\n    external\r\n    authorized\r\n    {\r\n        require(gas < 750000, \"Gas must be lower than 750000\");\r\n        distributorGas = gas;\r\n    }\r\n\r\n\r\n    function setAntiWhaleSellLimitDenominator(\r\n        uint256 newDenominator\r\n    )\r\n    external\r\n    authorized\r\n    {\r\n        require(\r\n            newDenominator <= 100000,\r\n            \"amount must be greater than 0.001% of circulating supply supply\"\r\n        );\r\n        antiWhaleSellLimitDenominator = newDenominator;\r\n    }\r\n\r\n\r\n    function getCirculatingSupply()\r\n    public\r\n    view\r\n    returns (uint256)\r\n    {\r\n        return _totalSupply.sub(balanceOf(DEAD)).sub(balanceOf(ZERO));\r\n    }\r\n\r\n    function getAntiWhaleSellLimit()\r\n    public\r\n    view\r\n    returns (uint256)\r\n    {\r\n        return getCirculatingSupply()/antiWhaleSellLimitDenominator;\r\n    }\r\n\r\n\r\n    // Determines what percent of market cap is backed\r\n    function getLiquidityBacking(\r\n        uint256 accuracy\r\n    )\r\n    public\r\n    view\r\n    returns (uint256)\r\n    {\r\n        return accuracy.mul(balanceOf(pair).mul(2)).div(getCirculatingSupply());\r\n    }\r\n\r\n\r\n    // Determines if target liquidity is met\r\n    function isOverLiquified(\r\n        uint256 target,\r\n        uint256 accuracy\r\n    )\r\n    public\r\n    view\r\n    returns (bool)\r\n    {\r\n        return getLiquidityBacking(accuracy) > target;\r\n    }\r\n\r\n\r\n    function setSellMultiplier(\r\n        bool _enabled,\r\n        uint256 _multiplier\r\n    )\r\n    external\r\n    authorized\r\n    {\r\n        require(_multiplier <= 2, \"Sell Multiplier Cannot be more than 2x\");\r\n        sellMultiplierEnabled = _enabled;\r\n        sellMultiplier = _multiplier;\r\n    }\r\n}\r\n",
  "sourcePath": "C:\\Users\\Graham\\Desktop\\StackedFinance\\contracts\\Stackd.sol",
  "compiler": {
    "name": "solc",
    "version": "0.8.12+commit.f00d7308.Emscripten.clang"
  },
  "schemaVersion": "3.4.6",
  "updatedAt": "2022-04-05T17:29:19.194Z",
  "devdoc": {
    "kind": "dev",
    "methods": {},
    "version": 1
  },
  "userdoc": {
    "kind": "user",
    "methods": {},
    "version": 1
  }
}